S01700004763634170706C69636174696F6E312E737265635B
S11300000C9434000C9449000C9449000C9449005D
S11300100C9449000C9449000C9449000C94490038
S11300200C9449000C9449000C9449000C94490028
S11300300C9449000C9449000C9449000C94490018
S11300400C9449000C9449000C9449000C94490008
S11300500C9449000C9449000C9449000C944900F8
S11300600C9449000C94490011241FBECFEFD8E032
S1130070DEBFCDBF11E0A0E0B1E0E6EDF5E002C0E7
S113008005900D92AC31B107D9F70E94E2000C94AF
S1130090E9020C9400009C01220F331FF901EE0FBA
S11300A0FF1FEE0FFF1FEE0FFF1FE21BF30BE050CD
S11300B0FF4F20853185232BB9F19C01220F331F7B
S11300C0F901EE0FFF1FEE0FFF1FEE0FFF1FE21BE4
S11300D0F30BE050FF4F22853385273031059CF424
S11300E0AC01440F551FFA01EE0FFF1FEE0FFF1F67
S11300F0EE0FFF1FE41BF50BE050FF4F2F5F3F4F48
S11301003387228749C09C01220F331FF901EE0F68
S1130110FF1FEE0FFF1FEE0FFF1FE21BF30BE0505C
S1130120FF4F1386128638C09C01220F331FF9013A
S1130130EE0FFF1FEE0FFF1FEE0FFF1FE21BF30B6F
S1130140E050FF4F22853385121613069CF4AC0150
S1130150440F551FFA01EE0FFF1FEE0FFF1FEE0FA6
S1130160FF1FE41BF50BE050FF4F2150310933878B
S1130170228712C09C01220F331FF901EE0FFF1FCB
S1130180EE0FFF1FEE0FFF1FE21BF30BE050FF4FBC
S113019027E030E033872287880F991FFC01EE0F98
S11301A0FF1FEE0FFF1FEE0FFF1FE81BF90BE050C0
S11301B0FF4FA485B58582859385E80FF91F80815B
S11301C08C93089587B18FEF87B994B184B980E097
S11301D090E00E944B0081E090E00E944B000F2EC3
S11301E0FDECFF2EF02D0F2EFCECEF2EF02D0F2E3C
S11301F0FCE4DF2EF02D0F2EFEE3CF2EF02DC0E019
S1130200D0E0812C912C00EF10E00F2EFDECBF2EDE
S1130210F02D0F2EFCECAF2EF02D0F2EFCE47F2ED4
S1130220F02D0F2EFEE36F2EF02D0AC080E090E03B
S113023022E02A95F1F700C0019688169906C1F7C5
S11302409801281939091216130654F480E090E035
S113025042E04A95F1F700C0019682179307C1F76F
S1130260C436D105BCF42AE037ED43E25CE36F2DDC
S11302707E2D8D2D9C2D0E948901F62EE72ED82EE1
S1130280C92E26E636E646E653E40E947C020E9426
S1130290F5014B01CD3281E0D807BCF02AE037EDFF
S11302A043E25CE36F2D7E2D8D2D9C2D0E948801F1
S11302B0F62EE72ED82EC92E26E636E646E653E479
S11302C00E947C020E94F5014B01C13991E0D907DB
S11302D08CF018B815B82FEF41E18AE7215040405F
S11302E08040E1F700C00000FB2CEA2CD72CC62C80
S11302F0C0E0D0E0219680E090E00E944B0081E0D5
S113030090E00E944B00181419040CF48FCF98CF7E
S11303105058BB27AA270E94A0010C9442020E94B5
S1130320340238F00E943B0220F039F49F3F19F464
S113033026F40C9431020EF4E095E7FB0C942B02A6
S1130340E92F0E94530258F3BA1762077307840710
S1130350950720F079F4A6F50C9475020EF4E09557
S11303600B2EBA2FA02D0B01B90190010C01CA016B
S1130370A0011124FF27591B99F0593F50F4503E16
S113038068F11A16F040A22F232F342F4427585F08
S1130390F3CF469537952795A795F0405395C9F720
S11303A07EF41F16BA0B620B730B840BBAF09150D8
S11303B0A1F0FF0FBB1F661F771F881FC2F70EC077
S11303C0BA0F621F731F841F48F48795779567954A
S11303D0B795F7959E3F08F0B0CF9395880F08F036
S11303E09927EE0F9795879508950E94FC016894CC
S11303F0B1110C94760208950E945B0288F09F5715
S113040098F0B92F9927B751B0F0E1F0660F771F34
S1130410881F991F1AF0BA95C9F714C0B13091F02A
S11304200E947502B1E008950C947502672F782F2D
S11304308827B85F39F0B93FCCF3869577956795EF
S1130440B395D9F73EF490958095709561957F4F5B
S11304508F4F9F4F089597F99F6780E870E060E0A1
S113046008959FEF80EC089500240A941616170649
S113047018060906089500240A9412161306140691
S113048005060895092E0394000C11F4882352F0F4
S1130490BB0F40F4BF2B11F460FF04C06F5F7F4FAC
S11304A08F4F9F4F089557FD9058440F551F59F093
S11304B05F3F71F04795880F97FB991F61F09F3F4D
S11304C079F087950895121613061406551FF2CF76
S11304D04695F1DF08C0161617061806991FF1CFC6
S11304E086957105610508940895E894BB276627ED
S11304F07727CB0197F908950E948F020C9442024A
S11305000E94340238F00E943B0220F0952311F03F
S11305100C942B020C94310211240C9476020E9448
S1130520530270F3959FC1F3950F50E0551F629FDE
S1130530F001729FBB27F00DB11D639FAA27F00D38
S1130540B11DAA1F649F6627B00DA11D661F829F5F
S11305502227B00DA11D621F739FB00DA11D621F44
S1130560839FA00D611D221F749F3327A00D611D61
S1130570231F849F600D211D822F762F6A2F112443
S11305809F5750409AF0F1F088234AF0EE0FFF1F76
S1130590BB1F661F771F881F91505040A9F79E3FCD
S11305A0510580F00C942B020C9476025F3FE4F327
S11305B0983ED4F3869577956795B795F795E79523
S11305C09F5FC1F7FE2B880F911D9695879597F92C
S10905D00895F894FFCF2A
S11305D601030206040C08090100000028000103B7
S10F05E60206040C0809010000002500B6
S9030000FC
