:100000000C9434000C9446000C9446000C9446006A
:100010000C9446000C9446000C9446000C94460048
:100020000C9446000C9446000C9446000C94460038
:100030000C9446000C9446000C9446000C94460028
:100040000C9446000C9446000C9446000C94460018
:100050000C9446000C9446000C9446000C94460008
:100060000C9446000C94460011241FBECFEFD8E03C
:10007000DEBFCDBF21E0A0E0B1E001C01D92A43001
:10008000B207E1F70E94D8000C94ED000C94000038
:1000900081E088B98091000190910101892B19F4C8
:1000A00086EC90E002C08AE590E090930301809393
:1000B0000201089583E088B98091000190910101C7
:1000C000892B19F488E490E002C08CE690E09093CC
:1000D000030180930201089582E088B980910001B4
:1000E00090910101892B19F48AE590E002C08EE716
:1000F00090E09093030180930201089586E088B90F
:100100008091000190910101892B19F48CE690E017
:1001100002C080E990E0909303018093020108956A
:1001200084E088B98091000190910101892B19F434
:100130008EE790E002C082EA90E090930301809302
:10014000020108958CE088B980910001909101012D
:10015000892B19F480E990E002C084EB90E0909341
:10016000030180930201089588E088B9809100011D
:1001700090910101892B19F482EA90E002C086EC8B
:1001800090E09093030180930201089589E088B97B
:100190008091000190910101892B19F484EB90E08A
:1001A00002C088E490E090930301809302010895D7
:1001B00087B18FEF87B988E490E090930301809333
:1001C0000201E0910201F0910301099587E795E0B2
:0E01D0000197F1F700C00000F4CFF894FFCFC4
:00000001FF
