S01B00004763634170706C69636174696F6E536572766F2E7372656379
S11300000C9434000C943E000C943E000C943E007E
S11300100C943E000C943E000C943E000C943E0064
S11300200C943E000C943E000C943E000C943E0054
S11300300C943E000C943E000C943E000C943E0044
S11300400C943E000C943E000C943E000C943E0034
S11300500C943E000C943E000C943E000C943E0024
S11300600C943E000C943E0011241FBECFEFD8E048
S1130070DEBFCDBF0E9440000C9480000C940000B1
S113008084B18FEF84B9E0E8F0E08081826C8083F2
S1130090E1E8F0E0808189618083E6E8F0E080E2D5
S11300A09EE49183808380819181805D97409093C9
S11300B0890080938800A6E8B0E0E8E8F0E08D913C
S11300C09C91119788529A40918380832FEB86EB01
S11300D096E0215080409040E1F700C000008D91EF
S11300E09C9111978C5D9540918380832FE78AE1E1
S11300F096E0215080409040E1F700C00000DFCF3F
S1070100F894FFCF9D
S9030000FC
